{
  "contractName": "blockOTA",
  "abi": [
    {
      "constant": true,
      "inputs": [
        {
          "name": "",
          "type": "uint256"
        }
      ],
      "name": "firmwareMetadata",
      "outputs": [
        {
          "name": "",
          "type": "string"
        }
      ],
      "payable": false,
      "stateMutability": "view",
      "type": "function"
    },
    {
      "inputs": [],
      "payable": false,
      "stateMutability": "nonpayable",
      "type": "constructor"
    },
    {
      "anonymous": false,
      "inputs": [
        {
          "indexed": false,
          "name": "ipfsLink",
          "type": "string"
        }
      ],
      "name": "newFirmware",
      "type": "event"
    },
    {
      "anonymous": false,
      "inputs": [],
      "name": "oemCheckTrigger",
      "type": "event"
    },
    {
      "constant": false,
      "inputs": [],
      "name": "stopContract",
      "outputs": [],
      "payable": false,
      "stateMutability": "nonpayable",
      "type": "function"
    },
    {
      "constant": false,
      "inputs": [],
      "name": "resumeContract",
      "outputs": [],
      "payable": false,
      "stateMutability": "nonpayable",
      "type": "function"
    },
    {
      "constant": false,
      "inputs": [
        {
          "name": "_firmwareversion",
          "type": "uint256"
        },
        {
          "name": "_metadata",
          "type": "string"
        },
        {
          "name": "_checksum",
          "type": "uint256"
        },
        {
          "name": "_oem",
          "type": "string"
        },
        {
          "name": "_ipfsadd",
          "type": "string"
        }
      ],
      "name": "firmwareUpload",
      "outputs": [
        {
          "name": "",
          "type": "bool"
        },
        {
          "name": "",
          "type": "string"
        }
      ],
      "payable": false,
      "stateMutability": "nonpayable",
      "type": "function"
    },
    {
      "constant": true,
      "inputs": [],
      "name": "checkVersion",
      "outputs": [
        {
          "name": "",
          "type": "uint256"
        }
      ],
      "payable": false,
      "stateMutability": "view",
      "type": "function"
    },
    {
      "constant": true,
      "inputs": [
        {
          "name": "_oemkey",
          "type": "string"
        }
      ],
      "name": "pairOem",
      "outputs": [
        {
          "name": "",
          "type": "bool"
        }
      ],
      "payable": false,
      "stateMutability": "view",
      "type": "function"
    },
    {
      "constant": true,
      "inputs": [
        {
          "name": "oemDev",
          "type": "string"
        }
      ],
      "name": "getFirmware",
      "outputs": [
        {
          "name": "",
          "type": "string"
        }
      ],
      "payable": false,
      "stateMutability": "view",
      "type": "function"
    }
  ],
  "bytecode": "0x608060405234801561001057600080fd5b50600580546001600160a01b03191633179055610d61806100326000396000f3fe608060405234801561001057600080fd5b506004361061007d5760003560e01c80636d0d9f121161005b5780636d0d9f12146101d6578063be0bac28146101f0578063c4bc5da514610430578063d0f29ec3146104385761007d565b806312253a6c14610082578063143fb4211461008c5780632ca12c731461011e575b600080fd5b61008a6104dc565b005b6100a9600480360360208110156100a257600080fd5b503561050b565b6040805160208082528351818301528351919283929083019185019080838360005b838110156100e35781810151838201526020016100cb565b50505050905090810190601f1680156101105780820380516001836020036101000a031916815260200191505b509250505060405180910390f35b6101c26004803603602081101561013457600080fd5b810190602081018135600160201b81111561014e57600080fd5b82018360208201111561016057600080fd5b803590602001918460018302840111600160201b8311171561018157600080fd5b91908080601f0160208091040260200160405190810160405280939291908181526020018383808284376000920191909152509295506105b1945050505050565b604080519115158252519081900360200190f35b6101de61076d565b60408051918252519081900360200190f35b6103ad600480360360a081101561020657600080fd5b81359190810190604081016020820135600160201b81111561022757600080fd5b82018360208201111561023957600080fd5b803590602001918460018302840111600160201b8311171561025a57600080fd5b91908080601f01602080910402602001604051908101604052809392919081815260200183838082843760009201919091525092958435959094909350604081019250602001359050600160201b8111156102b457600080fd5b8201836020820111156102c657600080fd5b803590602001918460018302840111600160201b831117156102e757600080fd5b91908080601f0160208091040260200160405190810160405280939291908181526020018383808284376000920191909152509295949360208101935035915050600160201b81111561033957600080fd5b82018360208201111561034b57600080fd5b803590602001918460018302840111600160201b8311171561036c57600080fd5b91908080601f0160208091040260200160405190810160405280939291908181526020018383808284376000920191909152509295506107aa945050505050565b604051808315151515815260200180602001828103825283818151815260200191508051906020019080838360005b838110156103f45781810151838201526020016103dc565b50505050905090810190601f1680156104215780820380516001836020036101000a031916815260200191505b50935050505060405180910390f35b61008a610aa1565b6100a96004803603602081101561044e57600080fd5b810190602081018135600160201b81111561046857600080fd5b82018360208201111561047a57600080fd5b803590602001918460018302840111600160201b8311171561049b57600080fd5b91908080601f016020809104026020016040519081016040528093929190818152602001838380828437600092019190915250929550610aca945050505050565b6005546001600160a01b031633146104f357600080fd5b60058054600160a01b60ff021916600160a01b179055565b6001818154811061051857fe5b600091825260209182902001805460408051601f60026000196101006001871615020190941693909304928301859004850281018501909152818152935090918301828280156105a95780601f1061057e576101008083540402835291602001916105a9565b820191906000526020600020905b81548152906001019060200180831161058c57829003601f168201915b505050505081565b600554600090600160a01b900460ff16156105cb57600080fd5b600380546060919060001981019081106105e157fe5b600091825260209182902001805460408051601f600260001961010060018716150201909416939093049283018590048502810185019091528181529283018282801561066f5780601f106106445761010080835404028352916020019161066f565b820191906000526020600020905b81548152906001019060200180831161065257829003601f168201915b50505050509050806040516020018082805190602001908083835b602083106106a95780518252601f19909201916020918201910161068a565b6001836020036101000a03801982511681845116808217855250505050505090500191505060405160208183030381529060405280519060200120836040516020018082805190602001908083835b602083106107175780518252601f1990920191602091820191016106f8565b6001836020036101000a038019825116818451168082178552505050505050905001915050604051602081830303815290604052805190602001201415610762576001915050610768565b60009150505b919050565b600554600090600160a01b900460ff161561078757600080fd5b60008054600019810190811061079957fe5b906000526020600020015490505b90565b600554600090606090600160a01b900460ff16156107c757600080fd5b6005546001600160a01b031633146107de57600080fd5b60008054600181810183557f290decd9548b62a8d60345a988386fc84ba6bc95484008f6362f93160ef3e56390910189905580548082018083559190925287519091610853917fb10e2d527612073b26eecdfd717e6a320cf44b4afac2b0732d9fcbe2b7fa0cf69091019060208a0190610c9d565b505060028590556003805460018101808355600092909252855161089e917fc2575a0e9e593c00f959f8c92f12db2869c3395a3b0502d05e2516446f71f85b01906020880190610c9d565b5050600480546001810180835560009290925284516108e4917f8a35acfbc15ff81a39ae7d344fd709f28e8600b4aa8c65c6b64bfe7fe36bd19b01906020870190610c9d565b50507fe8fed191be27a97d39fee997b8b3e6adcc6eb8dbc166954175ba6deb7c5269db836040518080602001828103825283818151815260200191508051906020019080838360005b8381101561094557818101518382015260200161092d565b50505050905090810190601f1680156109725780820380516001836020036101000a031916815260200191505b509250505060405180910390a160008054889190600019810190811061099457fe5b90600052602060002001541415610a5d57600480546001919060001981019081106109bb57fe5b600091825260209182902001805460408051601f600260001961010060018716150201909416939093049283018590048502810185019091528181529192839190830182828015610a4d5780601f10610a2257610100808354040283529160200191610a4d565b820191906000526020600020905b815481529060010190602001808311610a3057829003601f168201915b5050505050905091509150610a97565b505060408051808201909152600d81527f4e6f7420417661696c61626c650000000000000000000000000000000000000060208201526000905b9550959350505050565b6005546001600160a01b03163314610ab857600080fd5b60058054600160a01b60ff0219169055565b600554606090600160a01b900460ff1615610ae457600080fd5b600380546000198101908110610af657fe5b906000526020600020016040516020018082805460018160011615610100020316600290048015610b5e5780601f10610b3c576101008083540402835291820191610b5e565b820191906000526020600020905b815481529060010190602001808311610b4a575b505091505060405160208183030381529060405280519060200120826040516020018082805190602001908083835b60208310610bac5780518252601f199092019160209182019101610b8d565b6001836020036101000a0380198251168184511680821785525050505050509050019150506040516020818303038152906040528051906020012014610bf157600080fd5b600480546000198101908110610c0357fe5b600091825260209182902001805460408051601f6002600019610100600187161502019094169390930492830185900485028101850190915281815292830182828015610c915780601f10610c6657610100808354040283529160200191610c91565b820191906000526020600020905b815481529060010190602001808311610c7457829003601f168201915b50505050509050919050565b828054600181600116156101000203166002900490600052602060002090601f016020900481019282601f10610cde57805160ff1916838001178555610d0b565b82800160010185558215610d0b579182015b82811115610d0b578251825591602001919060010190610cf0565b50610d17929150610d1b565b5090565b6107a791905b80821115610d175760008155600101610d2156fea165627a7a72305820ad7fece022f69964566d4a532a131b93f24c0ac5ac68307cb68069018056df450029",
  "source": "pragma solidity >=0.4.22 <0.6.0;\r\n\r\ncontract blockOTA{\r\n    uint[] private incrementalVersion;\r\n    string[] public firmwareMetadata;\r\n    \r\n    uint private checksumType;\r\n    string[] private oemKey;\r\n    string [] private firmwareIpfsAddress;\r\n    \r\n    address private owner;\r\n    bool jamSig;\r\n    \r\n    event newFirmware(string ipfsLink);\r\n    event oemCheckTrigger();\r\n    \r\n    constructor() public{\r\n        owner = msg.sender;\r\n    }\r\n    \r\n    modifier onlyAuth{\r\n        require(msg.sender == owner);\r\n        _;\r\n    }\r\n    \r\n    modifier jamState{\r\n        require(!jamSig);\r\n        _;\r\n    } \r\n    \r\n    function stopContract() public onlyAuth{\r\n        jamSig = true;\r\n    }\r\n    \r\n    function resumeContract() public onlyAuth{\r\n        jamSig = false;\r\n    }\r\n    \r\n    function firmwareUpload(uint _firmwareversion, string memory _metadata, uint _checksum, string memory _oem, string memory _ipfsadd ) jamState onlyAuth\r\n    public returns(bool, string memory){\r\n        incrementalVersion.push(_firmwareversion);\r\n        firmwareMetadata.push(_metadata);\r\n        checksumType = _checksum;\r\n        oemKey.push(_oem);\r\n        firmwareIpfsAddress.push(_ipfsadd);\r\n        emit newFirmware(_ipfsadd);\r\n        if (incrementalVersion[incrementalVersion.length-1] == _firmwareversion){\r\n            return (true, firmwareIpfsAddress[firmwareIpfsAddress.length-1]);\r\n        } else {\r\n            return (false, \"Not Available\");\r\n        }\r\n    }\r\n    \r\n    function checkVersion() jamState public view\r\n    returns(uint){\r\n        return incrementalVersion[incrementalVersion.length-1];\r\n    }\r\n    \r\n    function pairOem(string memory _oemkey) jamState public view\r\n    returns(bool){\r\n        string memory currentOem = oemKey[oemKey.length-1];\r\n        if(keccak256(abi.encodePacked((_oemkey)))==keccak256(abi.encodePacked((currentOem)))){\r\n            return true;\r\n        } else {\r\n            return false;\r\n        }\r\n    }\r\n    \r\n    function getFirmware(string memory oemDev) jamState public view\r\n    returns(string memory){\r\n        require(keccak256(abi.encodePacked((oemDev))) == keccak256(abi.encodePacked((oemKey[oemKey.length-1]))));\r\n        return firmwareIpfsAddress[firmwareIpfsAddress.length-1];\r\n    }\r\n    \r\n}",
  "sourcePath": "D:/Projects/BlockOTA/contracts/blockOTA.sol",
  "compiler": {
    "name": "solc",
    "version": "0.5.8+commit.23d335f2.Emscripten.clang"
  },
  "schemaVersion": "3.0.11",
  "updatedAt": "2019-08-01T20:11:38.822Z",
  "devdoc": {
    "methods": {}
  },
  "userdoc": {
    "methods": {}
  }
}