{
  "contractName": "blockOTA",
  "abi": [
    {
      "constant": true,
      "inputs": [
        {
          "name": "",
          "type": "uint256"
        }
      ],
      "name": "firmwareMetadata",
      "outputs": [
        {
          "name": "",
          "type": "string"
        }
      ],
      "payable": false,
      "stateMutability": "view",
      "type": "function"
    },
    {
      "constant": true,
      "inputs": [
        {
          "name": "",
          "type": "uint256"
        }
      ],
      "name": "checksumType",
      "outputs": [
        {
          "name": "",
          "type": "uint256"
        }
      ],
      "payable": false,
      "stateMutability": "view",
      "type": "function"
    },
    {
      "constant": true,
      "inputs": [
        {
          "name": "",
          "type": "uint256"
        }
      ],
      "name": "incrementalVersion",
      "outputs": [
        {
          "name": "",
          "type": "uint256"
        }
      ],
      "payable": false,
      "stateMutability": "view",
      "type": "function"
    },
    {
      "constant": true,
      "inputs": [
        {
          "name": "",
          "type": "uint256"
        }
      ],
      "name": "firmwareIpfsAddress",
      "outputs": [
        {
          "name": "",
          "type": "string"
        }
      ],
      "payable": false,
      "stateMutability": "view",
      "type": "function"
    },
    {
      "inputs": [],
      "payable": false,
      "stateMutability": "nonpayable",
      "type": "constructor"
    },
    {
      "anonymous": false,
      "inputs": [
        {
          "indexed": false,
          "name": "ipfsLink",
          "type": "string"
        }
      ],
      "name": "newFirmware",
      "type": "event"
    },
    {
      "anonymous": false,
      "inputs": [],
      "name": "oemCheckTrigger",
      "type": "event"
    },
    {
      "constant": false,
      "inputs": [
        {
          "name": "_firmwareversion",
          "type": "uint256"
        },
        {
          "name": "_metadata",
          "type": "string"
        },
        {
          "name": "_checksum",
          "type": "uint256"
        },
        {
          "name": "_oem",
          "type": "string"
        },
        {
          "name": "_ipfsadd",
          "type": "string"
        }
      ],
      "name": "firmwareUpload",
      "outputs": [
        {
          "name": "",
          "type": "bool"
        },
        {
          "name": "",
          "type": "string"
        }
      ],
      "payable": false,
      "stateMutability": "nonpayable",
      "type": "function"
    },
    {
      "constant": true,
      "inputs": [],
      "name": "checkVersion",
      "outputs": [
        {
          "name": "",
          "type": "uint256"
        }
      ],
      "payable": false,
      "stateMutability": "view",
      "type": "function"
    },
    {
      "constant": false,
      "inputs": [
        {
          "name": "_oemkey",
          "type": "string"
        }
      ],
      "name": "pairOem",
      "outputs": [
        {
          "name": "",
          "type": "bool"
        }
      ],
      "payable": false,
      "stateMutability": "nonpayable",
      "type": "function"
    }
  ],
  "bytecode": "0x608060405234801561001057600080fd5b50600580546001600160a01b03191633179055610b20806100326000396000f3fe608060405234801561001057600080fd5b506004361061007d5760003560e01c80635a602eb51161005b5780635a602eb5146101fb5780636d0d9f1214610218578063be0bac2814610220578063e1e449e1146104605761007d565b8063143fb4211461008257806322e3a4f0146101145780632ca12c7314610143575b600080fd5b61009f6004803603602081101561009857600080fd5b503561047d565b6040805160208082528351818301528351919283929083019185019080838360005b838110156100d95781810151838201526020016100c1565b50505050905090810190601f1680156101065780820380516001836020036101000a031916815260200191505b509250505060405180910390f35b6101316004803603602081101561012a57600080fd5b5035610523565b60408051918252519081900360200190f35b6101e76004803603602081101561015957600080fd5b810190602081018135600160201b81111561017357600080fd5b82018360208201111561018557600080fd5b803590602001918460018302840111600160201b831117156101a657600080fd5b91908080601f016020809104026020016040519081016040528093929190818152602001838380828437600092019190915250929550610541945050505050565b604080519115158252519081900360200190f35b6101316004803603602081101561021157600080fd5b503561070e565b61013161071b565b6103dd600480360360a081101561023657600080fd5b81359190810190604081016020820135600160201b81111561025757600080fd5b82018360208201111561026957600080fd5b803590602001918460018302840111600160201b8311171561028a57600080fd5b91908080601f01602080910402602001604051908101604052809392919081815260200183838082843760009201919091525092958435959094909350604081019250602001359050600160201b8111156102e457600080fd5b8201836020820111156102f657600080fd5b803590602001918460018302840111600160201b8311171561031757600080fd5b91908080601f0160208091040260200160405190810160405280939291908181526020018383808284376000920191909152509295949360208101935035915050600160201b81111561036957600080fd5b82018360208201111561037b57600080fd5b803590602001918460018302840111600160201b8311171561039c57600080fd5b91908080601f016020809104026020016040519081016040528093929190818152602001838380828437600092019190915250929550610740945050505050565b604051808315151515815260200180602001828103825283818151815260200191508051906020019080838360005b8381101561042457818101518382015260200161040c565b50505050905090810190601f1680156104515780820380516001836020036101000a031916815260200191505b50935050505060405180910390f35b61009f6004803603602081101561047657600080fd5b5035610a4f565b6001818154811061048a57fe5b600091825260209182902001805460408051601f600260001961010060018716150201909416939093049283018590048502810185019091528181529350909183018282801561051b5780601f106104f05761010080835404028352916020019161051b565b820191906000526020600020905b8154815290600101906020018083116104fe57829003601f168201915b505050505081565b6002818154811061053057fe5b600091825260209091200154905081565b6040516000907f053952f5dabf8c15b0c51dc83ec55e5eed96537e88725629cc8f370828ae991b908290a16003805460609190600119810190811061058257fe5b600091825260209182902001805460408051601f60026000196101006001871615020190941693909304928301859004850281018501909152818152928301828280156106105780601f106105e557610100808354040283529160200191610610565b820191906000526020600020905b8154815290600101906020018083116105f357829003601f168201915b50505050509050806040516020018082805190602001908083835b6020831061064a5780518252601f19909201916020918201910161062b565b6001836020036101000a03801982511681845116808217855250505050505090500191505060405160208183030381529060405280519060200120836040516020018082805190602001908083835b602083106106b85780518252601f199092019160209182019101610699565b6001836020036101000a038019825116818451168082178552505050505050905001915050604051602081830303815290604052805190602001201415610703576001915050610709565b60009150505b919050565b6000818154811061053057fe5b600080548190600019810190811061072f57fe5b906000526020600020015490505b90565b6005546000906060906001600160a01b0316331461075d57600080fd5b60008054600181810183557f290decd9548b62a8d60345a988386fc84ba6bc95484008f6362f93160ef3e563909101899055805480820180835591909252875190916107d2917fb10e2d527612073b26eecdfd717e6a320cf44b4afac2b0732d9fcbe2b7fa0cf69091019060208a0190610a5c565b50506002805460018181019092557f405787fa12a823e0f2b7631cc41b3ba8828b3321ca811111fa75cd3aa3bb5ace01869055600380549182018082556000919091528551909161084c917fc2575a0e9e593c00f959f8c92f12db2869c3395a3b0502d05e2516446f71f85b909101906020880190610a5c565b505060048054600181018083556000929092528451610892917f8a35acfbc15ff81a39ae7d344fd709f28e8600b4aa8c65c6b64bfe7fe36bd19b01906020870190610a5c565b50507fe8fed191be27a97d39fee997b8b3e6adcc6eb8dbc166954175ba6deb7c5269db836040518080602001828103825283818151815260200191508051906020019080838360005b838110156108f35781810151838201526020016108db565b50505050905090810190601f1680156109205780820380516001836020036101000a031916815260200191505b509250505060405180910390a160008054889190600019810190811061094257fe5b90600052602060002001541415610a0b576004805460019190600019810190811061096957fe5b600091825260209182902001805460408051601f6002600019610100600187161502019094169390930492830185900485028101850190915281815291928391908301828280156109fb5780601f106109d0576101008083540402835291602001916109fb565b820191906000526020600020905b8154815290600101906020018083116109de57829003601f168201915b5050505050905091509150610a45565b505060408051808201909152600d81527f4e6f7420417661696c61626c650000000000000000000000000000000000000060208201526000905b9550959350505050565b6004818154811061048a57fe5b828054600181600116156101000203166002900490600052602060002090601f016020900481019282601f10610a9d57805160ff1916838001178555610aca565b82800160010185558215610aca579182015b82811115610aca578251825591602001919060010190610aaf565b50610ad6929150610ada565b5090565b61073d91905b80821115610ad65760008155600101610ae056fea165627a7a72305820565f010c2d59840d08d8dbbedb040be57201ecc2a43238b09eb8c082126cef200029",
  "source": "pragma solidity >=0.4.22 <0.6.0;\r\n\r\ncontract blockOTA{\r\n    uint[] public incrementalVersion;\r\n    string[] public firmwareMetadata;\r\n    \r\n    uint[] public checksumType;\r\n    string[] private oemKey;\r\n    string [] public firmwareIpfsAddress;\r\n    \r\n    address owner;\r\n    \r\n    event newFirmware(string ipfsLink);\r\n    event oemCheckTrigger();\r\n    \r\n    constructor() public{\r\n        owner = msg.sender;\r\n    }\r\n    \r\n    function firmwareUpload(uint _firmwareversion, string memory _metadata, uint _checksum, string memory _oem, string memory _ipfsadd ) \r\n    public returns(bool, string memory){\r\n        require(owner==msg.sender);\r\n        incrementalVersion.push(_firmwareversion);\r\n        firmwareMetadata.push(_metadata);\r\n        checksumType.push(_checksum);\r\n        oemKey.push(_oem);\r\n        firmwareIpfsAddress.push(_ipfsadd);\r\n        emit newFirmware(_ipfsadd);\r\n        if (incrementalVersion[incrementalVersion.length-1] == _firmwareversion){\r\n            return (true, firmwareIpfsAddress[firmwareIpfsAddress.length-1]);\r\n        } else {\r\n            return (false, \"Not Available\");\r\n        }\r\n    }\r\n    \r\n    function checkVersion() public view\r\n    returns(uint){\r\n        return incrementalVersion[incrementalVersion.length-1];\r\n    }\r\n    \r\n    function pairOem(string memory _oemkey) public\r\n    returns(bool){\r\n        emit oemCheckTrigger();\r\n        string memory currentOem = oemKey[oemKey.length-2];\r\n        if(keccak256(abi.encodePacked((_oemkey)))==keccak256(abi.encodePacked((currentOem)))){\r\n            return true;\r\n        } else {\r\n            return false;\r\n        }\r\n    }\r\n    \r\n    \r\n}",
  "sourcePath": "D:/Projects/BlockOTA/contracts/blockOTA.sol",
  "compiler": {
    "name": "solc",
    "version": "0.5.8+commit.23d335f2.Emscripten.clang"
  },
  "schemaVersion": "3.0.11",
  "updatedAt": "2019-08-01T09:55:01.378Z",
  "devdoc": {
    "methods": {}
  },
  "userdoc": {
    "methods": {}
  }
}